{
  "contractName": "Punctum",
  "abi": [
    {
      "inputs": [],
      "stateMutability": "nonpayable",
      "type": "constructor"
    },
    {
      "anonymous": false,
      "inputs": [
        {
          "indexed": true,
          "internalType": "address",
          "name": "owner",
          "type": "address"
        },
        {
          "indexed": true,
          "internalType": "address",
          "name": "approved",
          "type": "address"
        },
        {
          "indexed": true,
          "internalType": "uint256",
          "name": "tokenId",
          "type": "uint256"
        }
      ],
      "name": "Approval",
      "type": "event"
    },
    {
      "anonymous": false,
      "inputs": [
        {
          "indexed": true,
          "internalType": "address",
          "name": "owner",
          "type": "address"
        },
        {
          "indexed": true,
          "internalType": "address",
          "name": "operator",
          "type": "address"
        },
        {
          "indexed": false,
          "internalType": "bool",
          "name": "approved",
          "type": "bool"
        }
      ],
      "name": "ApprovalForAll",
      "type": "event"
    },
    {
      "anonymous": false,
      "inputs": [],
      "name": "ContractURI",
      "type": "event"
    },
    {
      "anonymous": false,
      "inputs": [
        {
          "indexed": true,
          "internalType": "bytes32",
          "name": "role",
          "type": "bytes32"
        },
        {
          "indexed": true,
          "internalType": "bytes32",
          "name": "previousAdminRole",
          "type": "bytes32"
        },
        {
          "indexed": true,
          "internalType": "bytes32",
          "name": "newAdminRole",
          "type": "bytes32"
        }
      ],
      "name": "RoleAdminChanged",
      "type": "event"
    },
    {
      "anonymous": false,
      "inputs": [
        {
          "indexed": true,
          "internalType": "bytes32",
          "name": "role",
          "type": "bytes32"
        },
        {
          "indexed": true,
          "internalType": "address",
          "name": "account",
          "type": "address"
        },
        {
          "indexed": true,
          "internalType": "address",
          "name": "sender",
          "type": "address"
        }
      ],
      "name": "RoleGranted",
      "type": "event"
    },
    {
      "anonymous": false,
      "inputs": [
        {
          "indexed": true,
          "internalType": "bytes32",
          "name": "role",
          "type": "bytes32"
        },
        {
          "indexed": true,
          "internalType": "address",
          "name": "account",
          "type": "address"
        },
        {
          "indexed": true,
          "internalType": "address",
          "name": "sender",
          "type": "address"
        }
      ],
      "name": "RoleRevoked",
      "type": "event"
    },
    {
      "anonymous": false,
      "inputs": [
        {
          "indexed": true,
          "internalType": "address",
          "name": "from",
          "type": "address"
        },
        {
          "indexed": true,
          "internalType": "address",
          "name": "to",
          "type": "address"
        },
        {
          "indexed": true,
          "internalType": "uint256",
          "name": "tokenId",
          "type": "uint256"
        }
      ],
      "name": "Transfer",
      "type": "event"
    },
    {
      "anonymous": false,
      "inputs": [],
      "name": "URIAll",
      "type": "event"
    },
    {
      "inputs": [],
      "name": "ADMIN_ROLE",
      "outputs": [
        {
          "internalType": "bytes32",
          "name": "",
          "type": "bytes32"
        }
      ],
      "stateMutability": "view",
      "type": "function"
    },
    {
      "inputs": [],
      "name": "DEFAULT_ADMIN_ROLE",
      "outputs": [
        {
          "internalType": "bytes32",
          "name": "",
          "type": "bytes32"
        }
      ],
      "stateMutability": "view",
      "type": "function"
    },
    {
      "inputs": [],
      "name": "METADATA_EXTENSION",
      "outputs": [
        {
          "internalType": "string",
          "name": "",
          "type": "string"
        }
      ],
      "stateMutability": "view",
      "type": "function"
    },
    {
      "inputs": [
        {
          "internalType": "address",
          "name": "to",
          "type": "address"
        },
        {
          "internalType": "uint256",
          "name": "tokenId",
          "type": "uint256"
        }
      ],
      "name": "approve",
      "outputs": [],
      "stateMutability": "nonpayable",
      "type": "function"
    },
    {
      "inputs": [
        {
          "internalType": "address",
          "name": "owner",
          "type": "address"
        }
      ],
      "name": "balanceOf",
      "outputs": [
        {
          "internalType": "uint256",
          "name": "",
          "type": "uint256"
        }
      ],
      "stateMutability": "view",
      "type": "function"
    },
    {
      "inputs": [
        {
          "internalType": "uint256",
          "name": "tokenId",
          "type": "uint256"
        }
      ],
      "name": "burn",
      "outputs": [],
      "stateMutability": "nonpayable",
      "type": "function"
    },
    {
      "inputs": [
        {
          "internalType": "uint256",
          "name": "tokenId",
          "type": "uint256"
        }
      ],
      "name": "getApproved",
      "outputs": [
        {
          "internalType": "address",
          "name": "",
          "type": "address"
        }
      ],
      "stateMutability": "view",
      "type": "function"
    },
    {
      "inputs": [
        {
          "internalType": "bytes32",
          "name": "role",
          "type": "bytes32"
        }
      ],
      "name": "getRoleAdmin",
      "outputs": [
        {
          "internalType": "bytes32",
          "name": "",
          "type": "bytes32"
        }
      ],
      "stateMutability": "view",
      "type": "function"
    },
    {
      "inputs": [
        {
          "internalType": "bytes32",
          "name": "role",
          "type": "bytes32"
        },
        {
          "internalType": "address",
          "name": "account",
          "type": "address"
        }
      ],
      "name": "grantRole",
      "outputs": [],
      "stateMutability": "nonpayable",
      "type": "function"
    },
    {
      "inputs": [
        {
          "internalType": "bytes32",
          "name": "role",
          "type": "bytes32"
        },
        {
          "internalType": "address",
          "name": "account",
          "type": "address"
        }
      ],
      "name": "hasRole",
      "outputs": [
        {
          "internalType": "bool",
          "name": "",
          "type": "bool"
        }
      ],
      "stateMutability": "view",
      "type": "function"
    },
    {
      "inputs": [
        {
          "internalType": "address",
          "name": "owner",
          "type": "address"
        },
        {
          "internalType": "address",
          "name": "operator",
          "type": "address"
        }
      ],
      "name": "isApprovedForAll",
      "outputs": [
        {
          "internalType": "bool",
          "name": "",
          "type": "bool"
        }
      ],
      "stateMutability": "view",
      "type": "function"
    },
    {
      "inputs": [],
      "name": "name",
      "outputs": [
        {
          "internalType": "string",
          "name": "",
          "type": "string"
        }
      ],
      "stateMutability": "view",
      "type": "function"
    },
    {
      "inputs": [
        {
          "internalType": "uint256",
          "name": "tokenId",
          "type": "uint256"
        }
      ],
      "name": "ownerOf",
      "outputs": [
        {
          "internalType": "address",
          "name": "",
          "type": "address"
        }
      ],
      "stateMutability": "view",
      "type": "function"
    },
    {
      "inputs": [
        {
          "internalType": "bytes32",
          "name": "role",
          "type": "bytes32"
        },
        {
          "internalType": "address",
          "name": "account",
          "type": "address"
        }
      ],
      "name": "renounceRole",
      "outputs": [],
      "stateMutability": "nonpayable",
      "type": "function"
    },
    {
      "inputs": [
        {
          "internalType": "bytes32",
          "name": "role",
          "type": "bytes32"
        },
        {
          "internalType": "address",
          "name": "account",
          "type": "address"
        }
      ],
      "name": "revokeRole",
      "outputs": [],
      "stateMutability": "nonpayable",
      "type": "function"
    },
    {
      "inputs": [
        {
          "internalType": "address",
          "name": "from",
          "type": "address"
        },
        {
          "internalType": "address",
          "name": "to",
          "type": "address"
        },
        {
          "internalType": "uint256",
          "name": "tokenId",
          "type": "uint256"
        }
      ],
      "name": "safeTransferFrom",
      "outputs": [],
      "stateMutability": "nonpayable",
      "type": "function"
    },
    {
      "inputs": [
        {
          "internalType": "address",
          "name": "from",
          "type": "address"
        },
        {
          "internalType": "address",
          "name": "to",
          "type": "address"
        },
        {
          "internalType": "uint256",
          "name": "tokenId",
          "type": "uint256"
        },
        {
          "internalType": "bytes",
          "name": "data",
          "type": "bytes"
        }
      ],
      "name": "safeTransferFrom",
      "outputs": [],
      "stateMutability": "nonpayable",
      "type": "function"
    },
    {
      "inputs": [
        {
          "internalType": "address",
          "name": "operator",
          "type": "address"
        },
        {
          "internalType": "bool",
          "name": "approved",
          "type": "bool"
        }
      ],
      "name": "setApprovalForAll",
      "outputs": [],
      "stateMutability": "nonpayable",
      "type": "function"
    },
    {
      "inputs": [],
      "name": "symbol",
      "outputs": [
        {
          "internalType": "string",
          "name": "",
          "type": "string"
        }
      ],
      "stateMutability": "view",
      "type": "function"
    },
    {
      "inputs": [
        {
          "internalType": "uint256",
          "name": "index",
          "type": "uint256"
        }
      ],
      "name": "tokenByIndex",
      "outputs": [
        {
          "internalType": "uint256",
          "name": "",
          "type": "uint256"
        }
      ],
      "stateMutability": "view",
      "type": "function"
    },
    {
      "inputs": [
        {
          "internalType": "address",
          "name": "owner",
          "type": "address"
        },
        {
          "internalType": "uint256",
          "name": "index",
          "type": "uint256"
        }
      ],
      "name": "tokenOfOwnerByIndex",
      "outputs": [
        {
          "internalType": "uint256",
          "name": "",
          "type": "uint256"
        }
      ],
      "stateMutability": "view",
      "type": "function"
    },
    {
      "inputs": [],
      "name": "totalSupply",
      "outputs": [
        {
          "internalType": "uint256",
          "name": "",
          "type": "uint256"
        }
      ],
      "stateMutability": "view",
      "type": "function"
    },
    {
      "inputs": [
        {
          "internalType": "address",
          "name": "from",
          "type": "address"
        },
        {
          "internalType": "address",
          "name": "to",
          "type": "address"
        },
        {
          "internalType": "uint256",
          "name": "tokenId",
          "type": "uint256"
        }
      ],
      "name": "transferFrom",
      "outputs": [],
      "stateMutability": "nonpayable",
      "type": "function"
    },
    {
      "inputs": [],
      "name": "contractURI",
      "outputs": [
        {
          "internalType": "string",
          "name": "",
          "type": "string"
        }
      ],
      "stateMutability": "pure",
      "type": "function"
    },
    {
      "inputs": [],
      "name": "auctionState",
      "outputs": [
        {
          "internalType": "uint256",
          "name": "",
          "type": "uint256"
        },
        {
          "internalType": "address",
          "name": "",
          "type": "address"
        },
        {
          "internalType": "uint256",
          "name": "",
          "type": "uint256"
        },
        {
          "internalType": "uint256",
          "name": "",
          "type": "uint256"
        }
      ],
      "stateMutability": "view",
      "type": "function"
    },
    {
      "inputs": [
        {
          "internalType": "uint256",
          "name": "_tokenId",
          "type": "uint256"
        }
      ],
      "name": "tokenURI",
      "outputs": [
        {
          "internalType": "string",
          "name": "",
          "type": "string"
        }
      ],
      "stateMutability": "view",
      "type": "function"
    },
    {
      "inputs": [
        {
          "internalType": "string",
          "name": "_tokenURI",
          "type": "string"
        },
        {
          "internalType": "uint256",
          "name": "_duration",
          "type": "uint256"
        }
      ],
      "name": "startNextAuction",
      "outputs": [],
      "stateMutability": "nonpayable",
      "type": "function"
    },
    {
      "inputs": [],
      "name": "bid",
      "outputs": [],
      "stateMutability": "payable",
      "type": "function"
    },
    {
      "inputs": [],
      "name": "closeAuction",
      "outputs": [],
      "stateMutability": "nonpayable",
      "type": "function"
    },
    {
      "inputs": [],
      "name": "withdraw",
      "outputs": [],
      "stateMutability": "payable",
      "type": "function"
    },
    {
      "inputs": [
        {
          "internalType": "address payable",
          "name": "to",
          "type": "address"
        },
        {
          "internalType": "uint256",
          "name": "amount",
          "type": "uint256"
        }
      ],
      "name": "withdrawTo",
      "outputs": [],
      "stateMutability": "payable",
      "type": "function"
    },
    {
      "inputs": [
        {
          "internalType": "address",
          "name": "_owner",
          "type": "address"
        }
      ],
      "name": "tokensOfOwner",
      "outputs": [
        {
          "internalType": "uint256[]",
          "name": "",
          "type": "uint256[]"
        }
      ],
      "stateMutability": "view",
      "type": "function"
    },
    {
      "inputs": [
        {
          "internalType": "bytes4",
          "name": "interfaceId",
          "type": "bytes4"
        }
      ],
      "name": "supportsInterface",
      "outputs": [
        {
          "internalType": "bool",
          "name": "",
          "type": "bool"
        }
      ],
      "stateMutability": "view",
      "type": "function"
    }
  ],
  "bytecode": "0x60806040523480156200001157600080fd5b506040518060400160405280600781526020017f50756e6374756d000000000000000000000000000000000000000000000000008152506040518060400160405280600481526020017f5043544d0000000000000000000000000000000000000000000000000000000081525081600090816200008f919062000571565b508060019081620000a1919062000571565b505050620000d67fa49807205ce4d355092ef5a8a18f56e8913cf4a201fbe287825b095693c21775336200010e60201b60201c565b620001087fa49807205ce4d355092ef5a8a18f56e8913cf4a201fbe287825b095693c21775806200020060201b60201c565b62000658565b6200012082826200026460201b60201c565b620001fc576001600a600084815260200190815260200160002060000160008373ffffffffffffffffffffffffffffffffffffffff1673ffffffffffffffffffffffffffffffffffffffff16815260200190815260200160002060006101000a81548160ff021916908315150217905550620001a1620002cf60201b60201c565b73ffffffffffffffffffffffffffffffffffffffff168173ffffffffffffffffffffffffffffffffffffffff16837f2f8788117e7eff1d82e926ec794901d17c78024a50270940304540a733656f0d60405160405180910390a45b5050565b60006200021383620002d760201b60201c565b905081600a6000858152602001908152602001600020600101819055508181847fbd79b86ffe0ab8e8776151514217cd7cacd52c909f66475c3af44e129f0b00ff60405160405180910390a4505050565b6000600a600084815260200190815260200160002060000160008373ffffffffffffffffffffffffffffffffffffffff1673ffffffffffffffffffffffffffffffffffffffff16815260200190815260200160002060009054906101000a900460ff16905092915050565b600033905090565b6000600a6000838152602001908152602001600020600101549050919050565b600081519050919050565b7f4e487b7100000000000000000000000000000000000000000000000000000000600052604160045260246000fd5b7f4e487b7100000000000000000000000000000000000000000000000000000000600052602260045260246000fd5b600060028204905060018216806200037957607f821691505b6020821081036200038f576200038e62000331565b5b50919050565b60008190508160005260206000209050919050565b60006020601f8301049050919050565b600082821b905092915050565b600060088302620003f97fffffffffffffffffffffffffffffffffffffffffffffffffffffffffffffffff82620003ba565b620004058683620003ba565b95508019841693508086168417925050509392505050565b6000819050919050565b6000819050919050565b6000620004526200044c62000446846200041d565b62000427565b6200041d565b9050919050565b6000819050919050565b6200046e8362000431565b620004866200047d8262000459565b848454620003c7565b825550505050565b600090565b6200049d6200048e565b620004aa81848462000463565b505050565b5b81811015620004d257620004c660008262000493565b600181019050620004b0565b5050565b601f8211156200052157620004eb8162000395565b620004f684620003aa565b8101602085101562000506578190505b6200051e6200051585620003aa565b830182620004af565b50505b505050565b600082821c905092915050565b6000620005466000198460080262000526565b1980831691505092915050565b600062000561838362000533565b9150826002028217905092915050565b6200057c82620002f7565b67ffffffffffffffff81111562000598576200059762000302565b5b620005a4825462000360565b620005b1828285620004d6565b600060209050601f831160018114620005e95760008415620005d4578287015190505b620005e0858262000553565b86555062000650565b601f198416620005f98662000395565b60005b828110156200062357848901518255600182019150602085019450602081019050620005fc565b868310156200064357848901516200063f601f89168262000533565b8355505b6001600288020188555050505b505050505050565b614f8a80620006686000396000f3fe6080604052600436106101ee5760003560e01c80634348088f1161010d57806391d14854116100a0578063b88d4fde1161006f578063b88d4fde146106d7578063c87b56dd14610700578063d547741f1461073d578063e8a3d48514610766578063e985e9c514610791576101ee565b806391d148541461061b57806395d89b4114610658578063a217fddf14610683578063a22cb465146106ae576101ee565b806370a08231116100dc57806370a082311461054857806375b238fc146105855780637fb45099146105b05780638462151c146105de576101ee565b80634348088f1461047a5780634f6ccce7146104a55780636352211e146104e257806366ab30d21461051f576101ee565b8063248a9ca311610185578063378252f211610154578063378252f2146104075780633ccfd60b1461041e57806342842e0e1461042857806342966c6814610451576101ee565b8063248a9ca31461033b5780632f2ff15d146103785780632f745c59146103a157806336568abe146103de576101ee565b806318160ddd116101c157806318160ddd146102c15780631998aeef146102ec578063205c2878146102f657806323b872dd14610312576101ee565b806301ffc9a7146101f357806306fdde0314610230578063081812fc1461025b578063095ea7b314610298575b600080fd5b3480156101ff57600080fd5b5061021a600480360381019061021591906132f6565b6107ce565b604051610227919061333e565b60405180910390f35b34801561023c57600080fd5b506102456107e0565b60405161025291906133e9565b60405180910390f35b34801561026757600080fd5b50610282600480360381019061027d9190613441565b610872565b60405161028f91906134af565b60405180910390f35b3480156102a457600080fd5b506102bf60048036038101906102ba91906134f6565b6108b8565b005b3480156102cd57600080fd5b506102d66109cf565b6040516102e39190613545565b60405180910390f35b6102f46109dc565b005b610310600480360381019061030b919061359e565b610c59565b005b34801561031e57600080fd5b50610339600480360381019061033491906135de565b610d80565b005b34801561034757600080fd5b50610362600480360381019061035d9190613667565b610de0565b60405161036f91906136a3565b60405180910390f35b34801561038457600080fd5b5061039f600480360381019061039a91906136be565b610e00565b005b3480156103ad57600080fd5b506103c860048036038101906103c391906134f6565b610e21565b6040516103d59190613545565b60405180910390f35b3480156103ea57600080fd5b50610405600480360381019061040091906136be565b610ec6565b005b34801561041357600080fd5b5061041c610f49565b005b610426611162565b005b34801561043457600080fd5b5061044f600480360381019061044a91906135de565b61124a565b005b34801561045d57600080fd5b5061047860048036038101906104739190613441565b61126a565b005b34801561048657600080fd5b5061048f6112c6565b60405161049c91906133e9565b60405180910390f35b3480156104b157600080fd5b506104cc60048036038101906104c79190613441565b6112ff565b6040516104d99190613545565b60405180910390f35b3480156104ee57600080fd5b5061050960048036038101906105049190613441565b611370565b60405161051691906134af565b60405180910390f35b34801561052b57600080fd5b5061054660048036038101906105419190613833565b6113f6565b005b34801561055457600080fd5b5061056f600480360381019061056a919061388f565b611544565b60405161057c9190613545565b60405180910390f35b34801561059157600080fd5b5061059a6115fb565b6040516105a791906136a3565b60405180910390f35b3480156105bc57600080fd5b506105c561161f565b6040516105d594939291906138bc565b60405180910390f35b3480156105ea57600080fd5b506106056004803603810190610600919061388f565b611666565b60405161061291906139bf565b60405180910390f35b34801561062757600080fd5b50610642600480360381019061063d91906136be565b611714565b60405161064f919061333e565b60405180910390f35b34801561066457600080fd5b5061066d61177f565b60405161067a91906133e9565b60405180910390f35b34801561068f57600080fd5b50610698611811565b6040516106a591906136a3565b60405180910390f35b3480156106ba57600080fd5b506106d560048036038101906106d09190613a0d565b611818565b005b3480156106e357600080fd5b506106fe60048036038101906106f99190613aee565b61182e565b005b34801561070c57600080fd5b5061072760048036038101906107229190613441565b611890565b60405161073491906133e9565b60405180910390f35b34801561074957600080fd5b50610764600480360381019061075f91906136be565b61197f565b005b34801561077257600080fd5b5061077b6119a0565b60405161078891906133e9565b60405180910390f35b34801561079d57600080fd5b506107b860048036038101906107b39190613b71565b6119dd565b6040516107c5919061333e565b60405180910390f35b60006107d982611a71565b9050919050565b6060600080546107ef90613be0565b80601f016020809104026020016040519081016040528092919081815260200182805461081b90613be0565b80156108685780601f1061083d57610100808354040283529160200191610868565b820191906000526020600020905b81548152906001019060200180831161084b57829003601f168201915b5050505050905090565b600061087d82611aeb565b6004600083815260200190815260200160002060009054906101000a900473ffffffffffffffffffffffffffffffffffffffff169050919050565b60006108c382611370565b90508073ffffffffffffffffffffffffffffffffffffffff168373ffffffffffffffffffffffffffffffffffffffff1603610933576040517f08c379a000000000000000000000000000000000000000000000000000000000815260040161092a90613c83565b60405180910390fd5b8073ffffffffffffffffffffffffffffffffffffffff16610952611b36565b73ffffffffffffffffffffffffffffffffffffffff16148061098157506109808161097b611b36565b6119dd565b5b6109c0576040517f08c379a00000000000000000000000000000000000000000000000000000000081526004016109b790613d15565b60405180910390fd5b6109ca8383611b3e565b505050565b6000600880549050905090565b43600f5411610a20576040517f08c379a0000000000000000000000000000000000000000000000000000000008152600401610a1790613d81565b60405180910390fd5b600d543411610a64576040517f08c379a0000000000000000000000000000000000000000000000000000000008152600401610a5b90613e13565b60405180910390fd5b600e60009054906101000a900473ffffffffffffffffffffffffffffffffffffffff1673ffffffffffffffffffffffffffffffffffffffff163373ffffffffffffffffffffffffffffffffffffffff1603610af4576040517f08c379a0000000000000000000000000000000000000000000000000000000008152600401610aeb90613ea5565b60405180910390fd5b600073ffffffffffffffffffffffffffffffffffffffff16600e60009054906101000a900473ffffffffffffffffffffffffffffffffffffffff1673ffffffffffffffffffffffffffffffffffffffff1603610b975734600d8190555033600e60006101000a81548173ffffffffffffffffffffffffffffffffffffffff021916908373ffffffffffffffffffffffffffffffffffffffff160217905550610c57565b6000600e60009054906101000a900473ffffffffffffffffffffffffffffffffffffffff1690506000600d54905034600d8190555033600e60006101000a81548173ffffffffffffffffffffffffffffffffffffffff021916908373ffffffffffffffffffffffffffffffffffffffff1602179055508173ffffffffffffffffffffffffffffffffffffffff166108fc829081150290604051600060405180830381858888f19350505050158015610c53573d6000803e3d6000fd5b5050505b565b610c837fa49807205ce4d355092ef5a8a18f56e8913cf4a201fbe287825b095693c2177533611714565b610c8c57600080fd5b47811115610ccf576040517f08c379a0000000000000000000000000000000000000000000000000000000008152600401610cc690613f11565b60405180910390fd5b60008273ffffffffffffffffffffffffffffffffffffffff1682604051610cf590613f62565b60006040518083038185875af1925050503d8060008114610d32576040519150601f19603f3d011682016040523d82523d6000602084013e610d37565b606091505b5050905080610d7b576040517f08c379a0000000000000000000000000000000000000000000000000000000008152600401610d7290613fc3565b60405180910390fd5b505050565b610d91610d8b611b36565b82611bf7565b610dd0576040517f08c379a0000000000000000000000000000000000000000000000000000000008152600401610dc790614055565b60405180910390fd5b610ddb838383611c8c565b505050565b6000600a6000838152602001908152602001600020600101549050919050565b610e0982610de0565b610e1281611f85565b610e1c8383611f99565b505050565b6000610e2c83611544565b8210610e6d576040517f08c379a0000000000000000000000000000000000000000000000000000000008152600401610e64906140e7565b60405180910390fd5b600660008473ffffffffffffffffffffffffffffffffffffffff1673ffffffffffffffffffffffffffffffffffffffff168152602001908152602001600020600083815260200190815260200160002054905092915050565b610ece611b36565b73ffffffffffffffffffffffffffffffffffffffff168173ffffffffffffffffffffffffffffffffffffffff1614610f3b576040517f08c379a0000000000000000000000000000000000000000000000000000000008152600401610f3290614179565b60405180910390fd5b610f45828261207a565b5050565b43600f5410610f8d576040517f08c379a0000000000000000000000000000000000000000000000000000000008152600401610f84906141e5565b60405180910390fd5b600073ffffffffffffffffffffffffffffffffffffffff16600e60009054906101000a900473ffffffffffffffffffffffffffffffffffffffff1673ffffffffffffffffffffffffffffffffffffffff160361101e576040517f08c379a000000000000000000000000000000000000000000000000000000000815260040161101590614251565b60405180910390fd5b600061102a600b61215c565b9050600073ffffffffffffffffffffffffffffffffffffffff16600e60009054906101000a900473ffffffffffffffffffffffffffffffffffffffff1673ffffffffffffffffffffffffffffffffffffffff16036110da576000600e60006101000a81548173ffffffffffffffffffffffffffffffffffffffff021916908373ffffffffffffffffffffffffffffffffffffffff1602179055506000600d819055506000600f8190555050611160565b6000600e60009054906101000a900473ffffffffffffffffffffffffffffffffffffffff1690506000600e60006101000a81548173ffffffffffffffffffffffffffffffffffffffff021916908373ffffffffffffffffffffffffffffffffffffffff1602179055506000600d819055506000600f8190555061115d818361216a565b50505b565b61118c7fa49807205ce4d355092ef5a8a18f56e8913cf4a201fbe287825b095693c2177533611714565b61119557600080fd5b600047905060003373ffffffffffffffffffffffffffffffffffffffff16826040516111c090613f62565b60006040518083038185875af1925050503d80600081146111fd576040519150601f19603f3d011682016040523d82523d6000602084013e611202565b606091505b5050905080611246576040517f08c379a000000000000000000000000000000000000000000000000000000000815260040161123d90613fc3565b60405180910390fd5b5050565b6112658383836040518060200160405280600081525061182e565b505050565b61127b611275611b36565b82611bf7565b6112ba576040517f08c379a00000000000000000000000000000000000000000000000000000000081526004016112b190614055565b60405180910390fd5b6112c381612188565b50565b6040518060400160405280600581526020017f2e6a736f6e00000000000000000000000000000000000000000000000000000081525081565b60006113096109cf565b821061134a576040517f08c379a0000000000000000000000000000000000000000000000000000000008152600401611341906142e3565b60405180910390fd5b6008828154811061135e5761135d614303565b5b90600052602060002001549050919050565b60008061137c836122d6565b9050600073ffffffffffffffffffffffffffffffffffffffff168173ffffffffffffffffffffffffffffffffffffffff16036113ed576040517f08c379a00000000000000000000000000000000000000000000000000000000081526004016113e49061437e565b60405180910390fd5b80915050919050565b6114207fa49807205ce4d355092ef5a8a18f56e8913cf4a201fbe287825b095693c2177533611714565b61142957600080fd5b6000811161146c576040517f08c379a0000000000000000000000000000000000000000000000000000000008152600401611463906143ea565b60405180910390fd5b43600f54106114b0576040517f08c379a00000000000000000000000000000000000000000000000000000000081526004016114a790614456565b60405180910390fd5b6114ba600b612313565b81600c60006114c9600b61215c565b815260200190815260200160002090816114e39190614622565b5080436114f09190614723565b600f819055506000600d819055506000600e60006101000a81548173ffffffffffffffffffffffffffffffffffffffff021916908373ffffffffffffffffffffffffffffffffffffffff1602179055505050565b60008073ffffffffffffffffffffffffffffffffffffffff168273ffffffffffffffffffffffffffffffffffffffff16036115b4576040517f08c379a00000000000000000000000000000000000000000000000000000000081526004016115ab906147c9565b60405180910390fd5b600360008373ffffffffffffffffffffffffffffffffffffffff1673ffffffffffffffffffffffffffffffffffffffff168152602001908152602001600020549050919050565b7fa49807205ce4d355092ef5a8a18f56e8913cf4a201fbe287825b095693c2177581565b60008060008061162f600b61215c565b600e60009054906101000a900473ffffffffffffffffffffffffffffffffffffffff16600d54600f54935093509350935090919293565b6060600061167383611544565b905060008167ffffffffffffffff81111561169157611690613708565b5b6040519080825280602002602001820160405280156116bf5781602001602082028036833780820191505090505b50905060005b82811015611709576116d78582610e21565b8282815181106116ea576116e9614303565b5b6020026020010181815250508080611701906147e9565b9150506116c5565b508092505050919050565b6000600a600084815260200190815260200160002060000160008373ffffffffffffffffffffffffffffffffffffffff1673ffffffffffffffffffffffffffffffffffffffff16815260200190815260200160002060009054906101000a900460ff16905092915050565b60606001805461178e90613be0565b80601f01602080910402602001604051908101604052809291908181526020018280546117ba90613be0565b80156118075780601f106117dc57610100808354040283529160200191611807565b820191906000526020600020905b8154815290600101906020018083116117ea57829003601f168201915b5050505050905090565b6000801b81565b61182a611823611b36565b8383612329565b5050565b61183f611839611b36565b83611bf7565b61187e576040517f08c379a000000000000000000000000000000000000000000000000000000000815260040161187590614055565b60405180910390fd5b61188a84848484612495565b50505050565b60606000600c600084815260200190815260200160002080546118b290613be0565b80601f01602080910402602001604051908101604052809291908181526020018280546118de90613be0565b801561192b5780601f106119005761010080835404028352916020019161192b565b820191906000526020600020905b81548152906001019060200180831161190e57829003601f168201915b505050505090506000815111611976576040517f08c379a000000000000000000000000000000000000000000000000000000000815260040161196d9061487d565b60405180910390fd5b80915050919050565b61198882610de0565b61199181611f85565b61199b838361207a565b505050565b60606040518060400160405280601881526020017f697066733a2f2f2e2e2e2f636f6e74726163742e6a736f6e0000000000000000815250905090565b6000600560008473ffffffffffffffffffffffffffffffffffffffff1673ffffffffffffffffffffffffffffffffffffffff16815260200190815260200160002060008373ffffffffffffffffffffffffffffffffffffffff1673ffffffffffffffffffffffffffffffffffffffff16815260200190815260200160002060009054906101000a900460ff16905092915050565b60007f7965db0b000000000000000000000000000000000000000000000000000000007bffffffffffffffffffffffffffffffffffffffffffffffffffffffff1916827bffffffffffffffffffffffffffffffffffffffffffffffffffffffff19161480611ae45750611ae3826124f1565b5b9050919050565b611af48161256b565b611b33576040517f08c379a0000000000000000000000000000000000000000000000000000000008152600401611b2a9061437e565b60405180910390fd5b50565b600033905090565b816004600083815260200190815260200160002060006101000a81548173ffffffffffffffffffffffffffffffffffffffff021916908373ffffffffffffffffffffffffffffffffffffffff160217905550808273ffffffffffffffffffffffffffffffffffffffff16611bb183611370565b73ffffffffffffffffffffffffffffffffffffffff167f8c5be1e5ebec7d5bd14f71427d1e84f3dd0314c0f7b2291e5b200ac8c7c3b92560405160405180910390a45050565b600080611c0383611370565b90508073ffffffffffffffffffffffffffffffffffffffff168473ffffffffffffffffffffffffffffffffffffffff161480611c455750611c4481856119dd565b5b80611c8357508373ffffffffffffffffffffffffffffffffffffffff16611c6b84610872565b73ffffffffffffffffffffffffffffffffffffffff16145b91505092915050565b8273ffffffffffffffffffffffffffffffffffffffff16611cac82611370565b73ffffffffffffffffffffffffffffffffffffffff1614611d02576040517f08c379a0000000000000000000000000000000000000000000000000000000008152600401611cf99061490f565b60405180910390fd5b600073ffffffffffffffffffffffffffffffffffffffff168273ffffffffffffffffffffffffffffffffffffffff1603611d71576040517f08c379a0000000000000000000000000000000000000000000000000000000008152600401611d68906149a1565b60405180910390fd5b611d7e83838360016125ac565b8273ffffffffffffffffffffffffffffffffffffffff16611d9e82611370565b73ffffffffffffffffffffffffffffffffffffffff1614611df4576040517f08c379a0000000000000000000000000000000000000000000000000000000008152600401611deb9061490f565b60405180910390fd5b6004600082815260200190815260200160002060006101000a81549073ffffffffffffffffffffffffffffffffffffffff02191690556001600360008573ffffffffffffffffffffffffffffffffffffffff1673ffffffffffffffffffffffffffffffffffffffff168152602001908152602001600020600082825403925050819055506001600360008473ffffffffffffffffffffffffffffffffffffffff1673ffffffffffffffffffffffffffffffffffffffff16815260200190815260200160002060008282540192505081905550816002600083815260200190815260200160002060006101000a81548173ffffffffffffffffffffffffffffffffffffffff021916908373ffffffffffffffffffffffffffffffffffffffff160217905550808273ffffffffffffffffffffffffffffffffffffffff168473ffffffffffffffffffffffffffffffffffffffff167fddf252ad1be2c89b69c2b068fc378daa952ba7f163c4a11628f55a4df523b3ef60405160405180910390a4611f8083838360016125be565b505050565b611f9681611f91611b36565b6125c4565b50565b611fa38282611714565b612076576001600a600084815260200190815260200160002060000160008373ffffffffffffffffffffffffffffffffffffffff1673ffffffffffffffffffffffffffffffffffffffff16815260200190815260200160002060006101000a81548160ff02191690831515021790555061201b611b36565b73ffffffffffffffffffffffffffffffffffffffff168173ffffffffffffffffffffffffffffffffffffffff16837f2f8788117e7eff1d82e926ec794901d17c78024a50270940304540a733656f0d60405160405180910390a45b5050565b6120848282611714565b15612158576000600a600084815260200190815260200160002060000160008373ffffffffffffffffffffffffffffffffffffffff1673ffffffffffffffffffffffffffffffffffffffff16815260200190815260200160002060006101000a81548160ff0219169083151502179055506120fd611b36565b73ffffffffffffffffffffffffffffffffffffffff168173ffffffffffffffffffffffffffffffffffffffff16837ff6391f5c32d9c69d2a47ea670b442974b53935d1edc7fd64eb21e047a839171b60405160405180910390a45b5050565b600081600001549050919050565b612184828260405180602001604052806000815250612649565b5050565b600061219382611370565b90506121a38160008460016125ac565b6121ac82611370565b90506004600083815260200190815260200160002060006101000a81549073ffffffffffffffffffffffffffffffffffffffff02191690556001600360008373ffffffffffffffffffffffffffffffffffffffff1673ffffffffffffffffffffffffffffffffffffffff168152602001908152602001600020600082825403925050819055506002600083815260200190815260200160002060006101000a81549073ffffffffffffffffffffffffffffffffffffffff021916905581600073ffffffffffffffffffffffffffffffffffffffff168273ffffffffffffffffffffffffffffffffffffffff167fddf252ad1be2c89b69c2b068fc378daa952ba7f163c4a11628f55a4df523b3ef60405160405180910390a46122d28160008460016125be565b5050565b60006002600083815260200190815260200160002060009054906101000a900473ffffffffffffffffffffffffffffffffffffffff169050919050565b6001816000016000828254019250508190555050565b8173ffffffffffffffffffffffffffffffffffffffff168373ffffffffffffffffffffffffffffffffffffffff1603612397576040517f08c379a000000000000000000000000000000000000000000000000000000000815260040161238e90614a0d565b60405180910390fd5b80600560008573ffffffffffffffffffffffffffffffffffffffff1673ffffffffffffffffffffffffffffffffffffffff16815260200190815260200160002060008473ffffffffffffffffffffffffffffffffffffffff1673ffffffffffffffffffffffffffffffffffffffff16815260200190815260200160002060006101000a81548160ff0219169083151502179055508173ffffffffffffffffffffffffffffffffffffffff168373ffffffffffffffffffffffffffffffffffffffff167f17307eab39ab6107e8899845ad3d59bd9653f200f220920489ca2b5937696c3183604051612488919061333e565b60405180910390a3505050565b6124a0848484611c8c565b6124ac848484846126a4565b6124eb576040517f08c379a00000000000000000000000000000000000000000000000000000000081526004016124e290614a9f565b60405180910390fd5b50505050565b60007f780e9d63000000000000000000000000000000000000000000000000000000007bffffffffffffffffffffffffffffffffffffffffffffffffffffffff1916827bffffffffffffffffffffffffffffffffffffffffffffffffffffffff1916148061256457506125638261282b565b5b9050919050565b60008073ffffffffffffffffffffffffffffffffffffffff1661258d836122d6565b73ffffffffffffffffffffffffffffffffffffffff1614159050919050565b6125b88484848461290d565b50505050565b50505050565b6125ce8282611714565b612645576125db81612a6b565b6125e98360001c6020612a98565b6040516020016125fa929190614b93565b6040516020818303038152906040526040517f08c379a000000000000000000000000000000000000000000000000000000000815260040161263c91906133e9565b60405180910390fd5b5050565b6126538383612cd4565b61266060008484846126a4565b61269f576040517f08c379a000000000000000000000000000000000000000000000000000000000815260040161269690614a9f565b60405180910390fd5b505050565b60006126c58473ffffffffffffffffffffffffffffffffffffffff16612ef1565b1561281e578373ffffffffffffffffffffffffffffffffffffffff1663150b7a026126ee611b36565b8786866040518563ffffffff1660e01b81526004016127109493929190614c22565b6020604051808303816000875af192505050801561274c57506040513d601f19601f820116820180604052508101906127499190614c83565b60015b6127ce573d806000811461277c576040519150601f19603f3d011682016040523d82523d6000602084013e612781565b606091505b5060008151036127c6576040517f08c379a00000000000000000000000000000000000000000000000000000000081526004016127bd90614a9f565b60405180910390fd5b805181602001fd5b63150b7a0260e01b7bffffffffffffffffffffffffffffffffffffffffffffffffffffffff1916817bffffffffffffffffffffffffffffffffffffffffffffffffffffffff191614915050612823565b600190505b949350505050565b60007f80ac58cd000000000000000000000000000000000000000000000000000000007bffffffffffffffffffffffffffffffffffffffffffffffffffffffff1916827bffffffffffffffffffffffffffffffffffffffffffffffffffffffff191614806128f657507f5b5e139f000000000000000000000000000000000000000000000000000000007bffffffffffffffffffffffffffffffffffffffffffffffffffffffff1916827bffffffffffffffffffffffffffffffffffffffffffffffffffffffff1916145b80612906575061290582612f14565b5b9050919050565b61291984848484612f7e565b600181111561295d576040517f08c379a000000000000000000000000000000000000000000000000000000000815260040161295490614d22565b60405180910390fd5b6000829050600073ffffffffffffffffffffffffffffffffffffffff168573ffffffffffffffffffffffffffffffffffffffff16036129a45761299f81612f84565b6129e3565b8373ffffffffffffffffffffffffffffffffffffffff168573ffffffffffffffffffffffffffffffffffffffff16146129e2576129e18582612fcd565b5b5b600073ffffffffffffffffffffffffffffffffffffffff168473ffffffffffffffffffffffffffffffffffffffff1603612a2557612a208161313a565b612a64565b8473ffffffffffffffffffffffffffffffffffffffff168473ffffffffffffffffffffffffffffffffffffffff1614612a6357612a62848261320b565b5b5b5050505050565b6060612a918273ffffffffffffffffffffffffffffffffffffffff16601460ff16612a98565b9050919050565b606060006002836002612aab9190614d42565b612ab59190614723565b67ffffffffffffffff811115612ace57612acd613708565b5b6040519080825280601f01601f191660200182016040528015612b005781602001600182028036833780820191505090505b5090507f300000000000000000000000000000000000000000000000000000000000000081600081518110612b3857612b37614303565b5b60200101907effffffffffffffffffffffffffffffffffffffffffffffffffffffffffffff1916908160001a9053507f780000000000000000000000000000000000000000000000000000000000000081600181518110612b9c57612b9b614303565b5b60200101907effffffffffffffffffffffffffffffffffffffffffffffffffffffffffffff1916908160001a90535060006001846002612bdc9190614d42565b612be69190614723565b90505b6001811115612c86577f3031323334353637383961626364656600000000000000000000000000000000600f861660108110612c2857612c27614303565b5b1a60f81b828281518110612c3f57612c3e614303565b5b60200101907effffffffffffffffffffffffffffffffffffffffffffffffffffffffffffff1916908160001a905350600485901c945080612c7f90614d84565b9050612be9565b5060008414612cca576040517f08c379a0000000000000000000000000000000000000000000000000000000008152600401612cc190614df9565b60405180910390fd5b8091505092915050565b600073ffffffffffffffffffffffffffffffffffffffff168273ffffffffffffffffffffffffffffffffffffffff1603612d43576040517f08c379a0000000000000000000000000000000000000000000000000000000008152600401612d3a90614e65565b60405180910390fd5b612d4c8161256b565b15612d8c576040517f08c379a0000000000000000000000000000000000000000000000000000000008152600401612d8390614ed1565b60405180910390fd5b612d9a6000838360016125ac565b612da38161256b565b15612de3576040517f08c379a0000000000000000000000000000000000000000000000000000000008152600401612dda90614ed1565b60405180910390fd5b6001600360008473ffffffffffffffffffffffffffffffffffffffff1673ffffffffffffffffffffffffffffffffffffffff16815260200190815260200160002060008282540192505081905550816002600083815260200190815260200160002060006101000a81548173ffffffffffffffffffffffffffffffffffffffff021916908373ffffffffffffffffffffffffffffffffffffffff160217905550808273ffffffffffffffffffffffffffffffffffffffff16600073ffffffffffffffffffffffffffffffffffffffff167fddf252ad1be2c89b69c2b068fc378daa952ba7f163c4a11628f55a4df523b3ef60405160405180910390a4612eed6000838360016125be565b5050565b6000808273ffffffffffffffffffffffffffffffffffffffff163b119050919050565b60007f01ffc9a7000000000000000000000000000000000000000000000000000000007bffffffffffffffffffffffffffffffffffffffffffffffffffffffff1916827bffffffffffffffffffffffffffffffffffffffffffffffffffffffff1916149050919050565b50505050565b6008805490506009600083815260200190815260200160002081905550600881908060018154018082558091505060019003906000526020600020016000909190919091505550565b60006001612fda84611544565b612fe49190614ef1565b90506000600760008481526020019081526020016000205490508181146130c9576000600660008673ffffffffffffffffffffffffffffffffffffffff1673ffffffffffffffffffffffffffffffffffffffff168152602001908152602001600020600084815260200190815260200160002054905080600660008773ffffffffffffffffffffffffffffffffffffffff1673ffffffffffffffffffffffffffffffffffffffff168152602001908152602001600020600084815260200190815260200160002081905550816007600083815260200190815260200160002081905550505b6007600084815260200190815260200160002060009055600660008573ffffffffffffffffffffffffffffffffffffffff1673ffffffffffffffffffffffffffffffffffffffff16815260200190815260200160002060008381526020019081526020016000206000905550505050565b6000600160088054905061314e9190614ef1565b905060006009600084815260200190815260200160002054905060006008838154811061317e5761317d614303565b5b9060005260206000200154905080600883815481106131a05761319f614303565b5b9060005260206000200181905550816009600083815260200190815260200160002081905550600960008581526020019081526020016000206000905560088054806131ef576131ee614f25565b5b6001900381819060005260206000200160009055905550505050565b600061321683611544565b905081600660008573ffffffffffffffffffffffffffffffffffffffff1673ffffffffffffffffffffffffffffffffffffffff168152602001908152602001600020600083815260200190815260200160002081905550806007600084815260200190815260200160002081905550505050565b6000604051905090565b600080fd5b600080fd5b60007fffffffff0000000000000000000000000000000000000000000000000000000082169050919050565b6132d38161329e565b81146132de57600080fd5b50565b6000813590506132f0816132ca565b92915050565b60006020828403121561330c5761330b613294565b5b600061331a848285016132e1565b91505092915050565b60008115159050919050565b61333881613323565b82525050565b6000602082019050613353600083018461332f565b92915050565b600081519050919050565b600082825260208201905092915050565b60005b83811015613393578082015181840152602081019050613378565b60008484015250505050565b6000601f19601f8301169050919050565b60006133bb82613359565b6133c58185613364565b93506133d5818560208601613375565b6133de8161339f565b840191505092915050565b6000602082019050818103600083015261340381846133b0565b905092915050565b6000819050919050565b61341e8161340b565b811461342957600080fd5b50565b60008135905061343b81613415565b92915050565b60006020828403121561345757613456613294565b5b60006134658482850161342c565b91505092915050565b600073ffffffffffffffffffffffffffffffffffffffff82169050919050565b60006134998261346e565b9050919050565b6134a98161348e565b82525050565b60006020820190506134c460008301846134a0565b92915050565b6134d38161348e565b81146134de57600080fd5b50565b6000813590506134f0816134ca565b92915050565b6000806040838503121561350d5761350c613294565b5b600061351b858286016134e1565b925050602061352c8582860161342c565b9150509250929050565b61353f8161340b565b82525050565b600060208201905061355a6000830184613536565b92915050565b600061356b8261346e565b9050919050565b61357b81613560565b811461358657600080fd5b50565b60008135905061359881613572565b92915050565b600080604083850312156135b5576135b4613294565b5b60006135c385828601613589565b92505060206135d48582860161342c565b9150509250929050565b6000806000606084860312156135f7576135f6613294565b5b6000613605868287016134e1565b9350506020613616868287016134e1565b92505060406136278682870161342c565b9150509250925092565b6000819050919050565b61364481613631565b811461364f57600080fd5b50565b6000813590506136618161363b565b92915050565b60006020828403121561367d5761367c613294565b5b600061368b84828501613652565b91505092915050565b61369d81613631565b82525050565b60006020820190506136b86000830184613694565b92915050565b600080604083850312156136d5576136d4613294565b5b60006136e385828601613652565b92505060206136f4858286016134e1565b9150509250929050565b600080fd5b600080fd5b7f4e487b7100000000000000000000000000000000000000000000000000000000600052604160045260246000fd5b6137408261339f565b810181811067ffffffffffffffff8211171561375f5761375e613708565b5b80604052505050565b600061377261328a565b905061377e8282613737565b919050565b600067ffffffffffffffff82111561379e5761379d613708565b5b6137a78261339f565b9050602081019050919050565b82818337600083830152505050565b60006137d66137d184613783565b613768565b9050828152602081018484840111156137f2576137f1613703565b5b6137fd8482856137b4565b509392505050565b600082601f83011261381a576138196136fe565b5b813561382a8482602086016137c3565b91505092915050565b6000806040838503121561384a57613849613294565b5b600083013567ffffffffffffffff81111561386857613867613299565b5b61387485828601613805565b92505060206138858582860161342c565b9150509250929050565b6000602082840312156138a5576138a4613294565b5b60006138b3848285016134e1565b91505092915050565b60006080820190506138d16000830187613536565b6138de60208301866134a0565b6138eb6040830185613536565b6138f86060830184613536565b95945050505050565b600081519050919050565b600082825260208201905092915050565b6000819050602082019050919050565b6139368161340b565b82525050565b6000613948838361392d565b60208301905092915050565b6000602082019050919050565b600061396c82613901565b613976818561390c565b93506139818361391d565b8060005b838110156139b2578151613999888261393c565b97506139a483613954565b925050600181019050613985565b5085935050505092915050565b600060208201905081810360008301526139d98184613961565b905092915050565b6139ea81613323565b81146139f557600080fd5b50565b600081359050613a07816139e1565b92915050565b60008060408385031215613a2457613a23613294565b5b6000613a32858286016134e1565b9250506020613a43858286016139f8565b9150509250929050565b600067ffffffffffffffff821115613a6857613a67613708565b5b613a718261339f565b9050602081019050919050565b6000613a91613a8c84613a4d565b613768565b905082815260208101848484011115613aad57613aac613703565b5b613ab88482856137b4565b509392505050565b600082601f830112613ad557613ad46136fe565b5b8135613ae5848260208601613a7e565b91505092915050565b60008060008060808587031215613b0857613b07613294565b5b6000613b16878288016134e1565b9450506020613b27878288016134e1565b9350506040613b388782880161342c565b925050606085013567ffffffffffffffff811115613b5957613b58613299565b5b613b6587828801613ac0565b91505092959194509250565b60008060408385031215613b8857613b87613294565b5b6000613b96858286016134e1565b9250506020613ba7858286016134e1565b9150509250929050565b7f4e487b7100000000000000000000000000000000000000000000000000000000600052602260045260246000fd5b60006002820490506001821680613bf857607f821691505b602082108103613c0b57613c0a613bb1565b5b50919050565b7f4552433732313a20617070726f76616c20746f2063757272656e74206f776e6560008201527f7200000000000000000000000000000000000000000000000000000000000000602082015250565b6000613c6d602183613364565b9150613c7882613c11565b604082019050919050565b60006020820190508181036000830152613c9c81613c60565b9050919050565b7f4552433732313a20617070726f76652063616c6c6572206973206e6f7420746f60008201527f6b656e206f776e6572206f7220617070726f76656420666f7220616c6c000000602082015250565b6000613cff603d83613364565b9150613d0a82613ca3565b604082019050919050565b60006020820190508181036000830152613d2e81613cf2565b9050919050565b7f41756374696f6e20616c726561647920656e6465640000000000000000000000600082015250565b6000613d6b601583613364565b9150613d7682613d35565b602082019050919050565b60006020820190508181036000830152613d9a81613d5e565b9050919050565b7f426964206d75737420626520686967686572207468616e2063757272656e742060008201527f6269640000000000000000000000000000000000000000000000000000000000602082015250565b6000613dfd602383613364565b9150613e0882613da1565b604082019050919050565b60006020820190508181036000830152613e2c81613df0565b9050919050565b7f596f752061726520616c7265616479207468652068696768657374206269646460008201527f6572000000000000000000000000000000000000000000000000000000000000602082015250565b6000613e8f602283613364565b9150613e9a82613e33565b604082019050919050565b60006020820190508181036000830152613ebe81613e82565b9050919050565b7f4e6f7420656e6f7567682066756e647320696e20636f6e747261637400000000600082015250565b6000613efb601c83613364565b9150613f0682613ec5565b602082019050919050565b60006020820190508181036000830152613f2a81613eee565b9050919050565b600081905092915050565b50565b6000613f4c600083613f31565b9150613f5782613f3c565b600082019050919050565b6000613f6d82613f3f565b9150819050919050565b7f4661696c656420746f2073656e6420746f6b656e000000000000000000000000600082015250565b6000613fad601483613364565b9150613fb882613f77565b602082019050919050565b60006020820190508181036000830152613fdc81613fa0565b9050919050565b7f4552433732313a2063616c6c6572206973206e6f7420746f6b656e206f776e6560008201527f72206f7220617070726f76656400000000000000000000000000000000000000602082015250565b600061403f602d83613364565b915061404a82613fe3565b604082019050919050565b6000602082019050818103600083015261406e81614032565b9050919050565b7f455243373231456e756d657261626c653a206f776e657220696e646578206f7560008201527f74206f6620626f756e6473000000000000000000000000000000000000000000602082015250565b60006140d1602b83613364565b91506140dc82614075565b604082019050919050565b60006020820190508181036000830152614100816140c4565b9050919050565b7f416363657373436f6e74726f6c3a2063616e206f6e6c792072656e6f756e636560008201527f20726f6c657320666f722073656c660000000000000000000000000000000000602082015250565b6000614163602f83613364565b915061416e82614107565b604082019050919050565b6000602082019050818103600083015261419281614156565b9050919050565b7f41756374696f6e206e6f742079657420656e6465640000000000000000000000600082015250565b60006141cf601583613364565b91506141da82614199565b602082019050919050565b600060208201905081810360008301526141fe816141c2565b9050919050565b7f4e6f206269647300000000000000000000000000000000000000000000000000600082015250565b600061423b600783613364565b915061424682614205565b602082019050919050565b6000602082019050818103600083015261426a8161422e565b9050919050565b7f455243373231456e756d657261626c653a20676c6f62616c20696e646578206f60008201527f7574206f6620626f756e64730000000000000000000000000000000000000000602082015250565b60006142cd602c83613364565b91506142d882614271565b604082019050919050565b600060208201905081810360008301526142fc816142c0565b9050919050565b7f4e487b7100000000000000000000000000000000000000000000000000000000600052603260045260246000fd5b7f4552433732313a20696e76616c696420746f6b656e2049440000000000000000600082015250565b6000614368601883613364565b915061437382614332565b602082019050919050565b600060208201905081810360008301526143978161435b565b9050919050565b7f4475726174696f6e206d7573742062652067726561746572207468616e203000600082015250565b60006143d4601f83613364565b91506143df8261439e565b602082019050919050565b60006020820190508181036000830152614403816143c7565b9050919050565b7f50726576696f75732061756374696f6e206e6f742079657420656e6465640000600082015250565b6000614440601e83613364565b915061444b8261440a565b602082019050919050565b6000602082019050818103600083015261446f81614433565b9050919050565b60008190508160005260206000209050919050565b60006020601f8301049050919050565b600082821b905092915050565b6000600883026144d87fffffffffffffffffffffffffffffffffffffffffffffffffffffffffffffffff8261449b565b6144e2868361449b565b95508019841693508086168417925050509392505050565b6000819050919050565b600061451f61451a6145158461340b565b6144fa565b61340b565b9050919050565b6000819050919050565b61453983614504565b61454d61454582614526565b8484546144a8565b825550505050565b600090565b614562614555565b61456d818484614530565b505050565b5b818110156145915761458660008261455a565b600181019050614573565b5050565b601f8211156145d6576145a781614476565b6145b08461448b565b810160208510156145bf578190505b6145d36145cb8561448b565b830182614572565b50505b505050565b600082821c905092915050565b60006145f9600019846008026145db565b1980831691505092915050565b600061461283836145e8565b9150826002028217905092915050565b61462b82613359565b67ffffffffffffffff81111561464457614643613708565b5b61464e8254613be0565b614659828285614595565b600060209050601f83116001811461468c576000841561467a578287015190505b6146848582614606565b8655506146ec565b601f19841661469a86614476565b60005b828110156146c25784890151825560018201915060208501945060208101905061469d565b868310156146df57848901516146db601f8916826145e8565b8355505b6001600288020188555050505b505050505050565b7f4e487b7100000000000000000000000000000000000000000000000000000000600052601160045260246000fd5b600061472e8261340b565b91506147398361340b565b9250828201905080821115614751576147506146f4565b5b92915050565b7f4552433732313a2061646472657373207a65726f206973206e6f74206120766160008201527f6c6964206f776e65720000000000000000000000000000000000000000000000602082015250565b60006147b3602983613364565b91506147be82614757565b604082019050919050565b600060208201905081810360008301526147e2816147a6565b9050919050565b60006147f48261340b565b91507fffffffffffffffffffffffffffffffffffffffffffffffffffffffffffffffff8203614826576148256146f4565b5b600182019050919050565b7f546f6b656e20555249206e6f7420736574000000000000000000000000000000600082015250565b6000614867601183613364565b915061487282614831565b602082019050919050565b600060208201905081810360008301526148968161485a565b9050919050565b7f4552433732313a207472616e736665722066726f6d20696e636f72726563742060008201527f6f776e6572000000000000000000000000000000000000000000000000000000602082015250565b60006148f9602583613364565b91506149048261489d565b604082019050919050565b60006020820190508181036000830152614928816148ec565b9050919050565b7f4552433732313a207472616e7366657220746f20746865207a65726f2061646460008201527f7265737300000000000000000000000000000000000000000000000000000000602082015250565b600061498b602483613364565b91506149968261492f565b604082019050919050565b600060208201905081810360008301526149ba8161497e565b9050919050565b7f4552433732313a20617070726f766520746f2063616c6c657200000000000000600082015250565b60006149f7601983613364565b9150614a02826149c1565b602082019050919050565b60006020820190508181036000830152614a26816149ea565b9050919050565b7f4552433732313a207472616e7366657220746f206e6f6e20455243373231526560008201527f63656976657220696d706c656d656e7465720000000000000000000000000000602082015250565b6000614a89603283613364565b9150614a9482614a2d565b604082019050919050565b60006020820190508181036000830152614ab881614a7c565b9050919050565b600081905092915050565b7f416363657373436f6e74726f6c3a206163636f756e7420000000000000000000600082015250565b6000614b00601783614abf565b9150614b0b82614aca565b601782019050919050565b6000614b2182613359565b614b2b8185614abf565b9350614b3b818560208601613375565b80840191505092915050565b7f206973206d697373696e6720726f6c6520000000000000000000000000000000600082015250565b6000614b7d601183614abf565b9150614b8882614b47565b601182019050919050565b6000614b9e82614af3565b9150614baa8285614b16565b9150614bb582614b70565b9150614bc18284614b16565b91508190509392505050565b600081519050919050565b600082825260208201905092915050565b6000614bf482614bcd565b614bfe8185614bd8565b9350614c0e818560208601613375565b614c178161339f565b840191505092915050565b6000608082019050614c3760008301876134a0565b614c4460208301866134a0565b614c516040830185613536565b8181036060830152614c638184614be9565b905095945050505050565b600081519050614c7d816132ca565b92915050565b600060208284031215614c9957614c98613294565b5b6000614ca784828501614c6e565b91505092915050565b7f455243373231456e756d657261626c653a20636f6e736563757469766520747260008201527f616e7366657273206e6f7420737570706f727465640000000000000000000000602082015250565b6000614d0c603583613364565b9150614d1782614cb0565b604082019050919050565b60006020820190508181036000830152614d3b81614cff565b9050919050565b6000614d4d8261340b565b9150614d588361340b565b9250828202614d668161340b565b91508282048414831517614d7d57614d7c6146f4565b5b5092915050565b6000614d8f8261340b565b915060008203614da257614da16146f4565b5b600182039050919050565b7f537472696e67733a20686578206c656e67746820696e73756666696369656e74600082015250565b6000614de3602083613364565b9150614dee82614dad565b602082019050919050565b60006020820190508181036000830152614e1281614dd6565b9050919050565b7f4552433732313a206d696e7420746f20746865207a65726f2061646472657373600082015250565b6000614e4f602083613364565b9150614e5a82614e19565b602082019050919050565b60006020820190508181036000830152614e7e81614e42565b9050919050565b7f4552433732313a20746f6b656e20616c7265616479206d696e74656400000000600082015250565b6000614ebb601c83613364565b9150614ec682614e85565b602082019050919050565b60006020820190508181036000830152614eea81614eae565b9050919050565b6000614efc8261340b565b9150614f078361340b565b9250828203905081811115614f1f57614f1e6146f4565b5b92915050565b7f4e487b7100000000000000000000000000000000000000000000000000000000600052603160045260246000fdfea2646970667358221220b00149a1c8b5b2ccb224a9c81c3fad5f5d3597c13946be7221941333ae8af26564736f6c63430008130033",
  "immutableReferences": {},
  "source": "// SPDX-License-Identifier: MIT\npragma solidity >=0.4.22 <0.9.0;\n\nimport \"@openzeppelin/contracts/token/ERC721/ERC721.sol\";\nimport \"@openzeppelin/contracts/token/ERC721/extensions/ERC721Enumerable.sol\";\nimport \"@openzeppelin/contracts/token/ERC721/extensions/ERC721Burnable.sol\";\nimport \"@openzeppelin/contracts/access/AccessControl.sol\";\nimport \"@openzeppelin/contracts/utils/Counters.sol\";\n\ncontract Punctum is ERC721, ERC721Enumerable, ERC721Burnable, AccessControl {\n    using Counters for Counters.Counter;\n    using Strings for uint256;\n\n    // events to fire when the baseURI is updated (required by raresama indexer)\n    event URIAll();\n    event ContractURI();\n\n    Counters.Counter private tokenIdCounter;\n    mapping(uint => string) tokenURIs;\n    uint currentBid;\n    address currentHighestBidder;\n    uint auctionEndTime;\n\n    string public constant METADATA_EXTENSION = \".json\";\n\n    bytes32 public constant ADMIN_ROLE = keccak256(\"ADMIN_ROLE\");\n\n    constructor() ERC721(\"Punctum\", \"PCTM\") {\n        _grantRole(ADMIN_ROLE, msg.sender);\n        _setRoleAdmin(ADMIN_ROLE, ADMIN_ROLE);\n    }\n\n    function contractURI() public pure returns (string memory) {\n        return \"ipfs://.../contract.json\";\n    }\n\n    // returns next token id, highest bidder, highest bid and endtime\n    function auctionState() public view returns (uint, address, uint, uint) {\n        return (tokenIdCounter.current(), currentHighestBidder, currentBid, auctionEndTime);\n    }\n\n    function tokenURI(\n        uint256 _tokenId\n    ) public view virtual override returns (string memory) {\n        string memory uri = tokenURIs[_tokenId];\n        require(bytes(uri).length > 0, \"Token URI not set\");\n        return uri;\n    }\n\n    function startNextAuction(string memory _tokenURI, uint _duration) public {\n        require(hasRole(ADMIN_ROLE, msg.sender));\n        require(_duration > 0, \"Duration must be greater than 0\");\n        require(\n            auctionEndTime < block.number,\n            \"Previous auction not yet ended\"\n        );\n        tokenIdCounter.increment();\n        tokenURIs[tokenIdCounter.current()] = _tokenURI;\n        auctionEndTime = block.number + _duration;\n        currentBid = 0;\n        currentHighestBidder = address(0);\n    }\n\n    function bid() public payable {\n        require(auctionEndTime > block.number, \"Auction already ended\");\n        require(msg.value > currentBid, \"Bid must be higher than current bid\");\n        require(\n            msg.sender != currentHighestBidder,\n            \"You are already the highest bidder\"\n        );\n        if (currentHighestBidder == address(0)) {\n            currentBid = msg.value;\n            currentHighestBidder = msg.sender;\n            return;\n        }\n        // respect checks+updates+interactions order\n        address lastBidder = currentHighestBidder;\n        uint lastBid = currentBid;\n        currentBid = msg.value;\n        currentHighestBidder = msg.sender;\n        payable(lastBidder).transfer(lastBid);        \n    }\n\n    function closeAuction() public {\n        require(auctionEndTime < block.number, \"Auction not yet ended\");\n        require(currentHighestBidder != address(0), \"No bids\");\n        uint256 tokenId = tokenIdCounter.current();\n\n        if (currentHighestBidder == address(0)) {\n            currentHighestBidder = address(0);\n            currentBid = 0;\n            auctionEndTime = 0;\n            return;        \n        }\n        // respect checks+updates+interactions order        \n        address target = currentHighestBidder;\n        currentHighestBidder = address(0);\n        currentBid = 0;\n        auctionEndTime = 0;\n        _safeMint(target, tokenId);\n    }\n\n    // This function is used to withdraw the funds from the contract to the sender\n    function withdraw() public payable {\n        require(hasRole(ADMIN_ROLE, msg.sender));\n        uint amount = address(this).balance;\n        (bool success, ) = payable(msg.sender).call{value: amount}(\"\");\n        require(success, \"Failed to send token\");\n    }\n\n    // This function is used to withdraw the funds from the contract to a specific address\n    function withdrawTo(address payable to, uint amount) public payable {\n        require(hasRole(ADMIN_ROLE, msg.sender));\n        require(\n            amount <= address(this).balance,\n            \"Not enough funds in contract\"\n        );\n        (bool success, ) = to.call{value: amount}(\"\");\n        require(success, \"Failed to send token\");\n    }\n\n    /*************************\n     * VIEW FUNCTIONS        *\n     *************************/\n\n    // Return all tokens owned by an address\n    function tokensOfOwner(\n        address _owner\n    ) external view returns (uint256[] memory) {\n        uint256 tokenCount = balanceOf(_owner);\n        uint256[] memory result = new uint256[](tokenCount);\n        for (uint256 i = 0; i < tokenCount; i++) {\n            result[i] = tokenOfOwnerByIndex(_owner, i);\n        }\n        return result;\n    }\n\n    /*************************\n     * INTERNAL FUNCTIONS    *\n     *************************/\n\n    // This function needs to be overwritten to make the contract behave correctly with regards to enumerating\n    function _beforeTokenTransfer(\n        address from,\n        address to,\n        uint256 tokenId,\n        uint256 batchSize\n    ) internal override(ERC721, ERC721Enumerable) {\n        super._beforeTokenTransfer(from, to, tokenId, batchSize);\n    }\n\n    // This function exposes all interfaces that the contract supports\n    function supportsInterface(\n        bytes4 interfaceId\n    )\n        public\n        view\n        override(ERC721, ERC721Enumerable, AccessControl)\n        returns (bool)\n    {\n        return super.supportsInterface(interfaceId);\n    }\n}\n",
  "sourcePath": "/home/trusch/Code/punctum/contracts/Punctum.sol",
  "compiler": {
    "name": "solc",
    "version": "0.8.19+commit.7dd6d404.Emscripten.clang"
  },
  "schemaVersion": "3.4.13",
  "updatedAt": "2023-03-31T09:46:13.378Z",
  "devdoc": {
    "events": {
      "Approval(address,address,uint256)": {
        "details": "Emitted when `owner` enables `approved` to manage the `tokenId` token."
      },
      "ApprovalForAll(address,address,bool)": {
        "details": "Emitted when `owner` enables or disables (`approved`) `operator` to manage all of its assets."
      },
      "RoleAdminChanged(bytes32,bytes32,bytes32)": {
        "details": "Emitted when `newAdminRole` is set as ``role``'s admin role, replacing `previousAdminRole` `DEFAULT_ADMIN_ROLE` is the starting admin for all roles, despite {RoleAdminChanged} not being emitted signaling this. _Available since v3.1._"
      },
      "RoleGranted(bytes32,address,address)": {
        "details": "Emitted when `account` is granted `role`. `sender` is the account that originated the contract call, an admin role bearer except when using {AccessControl-_setupRole}."
      },
      "RoleRevoked(bytes32,address,address)": {
        "details": "Emitted when `account` is revoked `role`. `sender` is the account that originated the contract call:   - if using `revokeRole`, it is the admin role bearer   - if using `renounceRole`, it is the role bearer (i.e. `account`)"
      },
      "Transfer(address,address,uint256)": {
        "details": "Emitted when `tokenId` token is transferred from `from` to `to`."
      }
    },
    "kind": "dev",
    "methods": {
      "approve(address,uint256)": {
        "details": "See {IERC721-approve}."
      },
      "balanceOf(address)": {
        "details": "See {IERC721-balanceOf}."
      },
      "burn(uint256)": {
        "details": "Burns `tokenId`. See {ERC721-_burn}. Requirements: - The caller must own `tokenId` or be an approved operator."
      },
      "getApproved(uint256)": {
        "details": "See {IERC721-getApproved}."
      },
      "getRoleAdmin(bytes32)": {
        "details": "Returns the admin role that controls `role`. See {grantRole} and {revokeRole}. To change a role's admin, use {_setRoleAdmin}."
      },
      "grantRole(bytes32,address)": {
        "details": "Grants `role` to `account`. If `account` had not been already granted `role`, emits a {RoleGranted} event. Requirements: - the caller must have ``role``'s admin role. May emit a {RoleGranted} event."
      },
      "hasRole(bytes32,address)": {
        "details": "Returns `true` if `account` has been granted `role`."
      },
      "isApprovedForAll(address,address)": {
        "details": "See {IERC721-isApprovedForAll}."
      },
      "name()": {
        "details": "See {IERC721Metadata-name}."
      },
      "ownerOf(uint256)": {
        "details": "See {IERC721-ownerOf}."
      },
      "renounceRole(bytes32,address)": {
        "details": "Revokes `role` from the calling account. Roles are often managed via {grantRole} and {revokeRole}: this function's purpose is to provide a mechanism for accounts to lose their privileges if they are compromised (such as when a trusted device is misplaced). If the calling account had been revoked `role`, emits a {RoleRevoked} event. Requirements: - the caller must be `account`. May emit a {RoleRevoked} event."
      },
      "revokeRole(bytes32,address)": {
        "details": "Revokes `role` from `account`. If `account` had been granted `role`, emits a {RoleRevoked} event. Requirements: - the caller must have ``role``'s admin role. May emit a {RoleRevoked} event."
      },
      "safeTransferFrom(address,address,uint256)": {
        "details": "See {IERC721-safeTransferFrom}."
      },
      "safeTransferFrom(address,address,uint256,bytes)": {
        "details": "See {IERC721-safeTransferFrom}."
      },
      "setApprovalForAll(address,bool)": {
        "details": "See {IERC721-setApprovalForAll}."
      },
      "symbol()": {
        "details": "See {IERC721Metadata-symbol}."
      },
      "tokenByIndex(uint256)": {
        "details": "See {IERC721Enumerable-tokenByIndex}."
      },
      "tokenOfOwnerByIndex(address,uint256)": {
        "details": "See {IERC721Enumerable-tokenOfOwnerByIndex}."
      },
      "totalSupply()": {
        "details": "See {IERC721Enumerable-totalSupply}."
      },
      "transferFrom(address,address,uint256)": {
        "details": "See {IERC721-transferFrom}."
      }
    },
    "version": 1
  },
  "userdoc": {
    "kind": "user",
    "methods": {},
    "version": 1
  }
}